{
  "contractName": "EVMContract",
  "abi": [
    {
      "anonymous": false,
      "inputs": [
        {
          "indexed": true,
          "internalType": "address",
          "name": "voter",
          "type": "address"
        },
        {
          "indexed": true,
          "internalType": "uint256",
          "name": "candidateId",
          "type": "uint256"
        }
      ],
      "name": "Vote",
      "type": "event"
    },
    {
      "inputs": [
        {
          "internalType": "uint256",
          "name": "",
          "type": "uint256"
        }
      ],
      "name": "candidates",
      "outputs": [
        {
          "internalType": "uint256",
          "name": "id",
          "type": "uint256"
        },
        {
          "internalType": "string",
          "name": "name",
          "type": "string"
        },
        {
          "internalType": "uint256",
          "name": "voteCount",
          "type": "uint256"
        }
      ],
      "stateMutability": "view",
      "type": "function"
    },
    {
      "inputs": [
        {
          "internalType": "address",
          "name": "",
          "type": "address"
        }
      ],
      "name": "hasVoted",
      "outputs": [
        {
          "internalType": "bool",
          "name": "",
          "type": "bool"
        }
      ],
      "stateMutability": "view",
      "type": "function"
    },
    {
      "inputs": [],
      "name": "totalVotes",
      "outputs": [
        {
          "internalType": "uint256",
          "name": "",
          "type": "uint256"
        }
      ],
      "stateMutability": "view",
      "type": "function"
    },
    {
      "inputs": [],
      "name": "votingEnd",
      "outputs": [
        {
          "internalType": "bool",
          "name": "",
          "type": "bool"
        }
      ],
      "stateMutability": "view",
      "type": "function"
    },
    {
      "inputs": [],
      "name": "votingStart",
      "outputs": [
        {
          "internalType": "bool",
          "name": "",
          "type": "bool"
        }
      ],
      "stateMutability": "view",
      "type": "function"
    },
    {
      "inputs": [
        {
          "internalType": "string[]",
          "name": "_candidateNames",
          "type": "string[]"
        }
      ],
      "name": "addCandidate",
      "outputs": [],
      "stateMutability": "nonpayable",
      "type": "function"
    },
    {
      "inputs": [],
      "name": "stopVoting",
      "outputs": [],
      "stateMutability": "nonpayable",
      "type": "function"
    },
    {
      "inputs": [],
      "name": "startVoting",
      "outputs": [],
      "stateMutability": "nonpayable",
      "type": "function"
    },
    {
      "inputs": [
        {
          "internalType": "uint256",
          "name": "_candidateId",
          "type": "uint256"
        }
      ],
      "name": "vote",
      "outputs": [],
      "stateMutability": "nonpayable",
      "type": "function"
    },
    {
      "inputs": [
        {
          "internalType": "uint256",
          "name": "_candidateId",
          "type": "uint256"
        }
      ],
      "name": "getTotalVotesofCandidate",
      "outputs": [
        {
          "internalType": "uint256",
          "name": "",
          "type": "uint256"
        }
      ],
      "stateMutability": "view",
      "type": "function"
    },
    {
      "inputs": [],
      "name": "getTotalCandidates",
      "outputs": [
        {
          "internalType": "uint256",
          "name": "",
          "type": "uint256"
        }
      ],
      "stateMutability": "view",
      "type": "function"
    }
  ],
  "bytecode": "0x608060405234801561000f575f80fd5b5061113e8061001d5f395ff3fe608060405234801561000f575f80fd5b50600436106100a7575f3560e01c80631ec6b60a1161006f5780631ec6b60a1461015157806325cd76cd1461015b5780633477ee2e1461017757806385a38635146101a95780639f093ce6146101c7578063fab2f86b146101f7576100a7565b80630121b93f146100ab57806309eef43e146100c75780630d15fd77146100f75780630deb56ab14610115578063101158af14610133575b5f80fd5b6100c560048036038101906100c0919061074a565b610201565b005b6100e160048036038101906100dc91906107cf565b610458565b6040516100ee9190610814565b60405180910390f35b6100ff610475565b60405161010c919061083c565b60405180910390f35b61011d61047a565b60405161012a919061083c565b60405180910390f35b61013b610486565b6040516101489190610814565b60405180910390f35b610159610498565b005b61017560048036038101906101709190610a73565b6104b3565b005b610191600480360381019061018c919061074a565b6105ab565b6040516101a093929190610b34565b60405180910390f35b6101b1610666565b6040516101be9190610814565b60405180910390f35b6101e160048036038101906101dc919061074a565b610677565b6040516101ee919061083c565b60405180910390f35b6101ff6106ea565b005b60015f9054906101000a900460ff1661024f576040517f08c379a000000000000000000000000000000000000000000000000000000000815260040161024690610bba565b60405180910390fd5b60018054906101000a900460ff161561029d576040517f08c379a000000000000000000000000000000000000000000000000000000000815260040161029490610c22565b60405180910390fd5b60035f3373ffffffffffffffffffffffffffffffffffffffff1673ffffffffffffffffffffffffffffffffffffffff1681526020019081526020015f205f9054906101000a900460ff1615610327576040517f08c379a000000000000000000000000000000000000000000000000000000000815260040161031e90610c8a565b60405180910390fd5b600280549050811061036e576040517f08c379a000000000000000000000000000000000000000000000000000000000815260040161036590610cf2565b60405180910390fd5b6002818154811061038257610381610d10565b5b905f5260205f2090600302016002015f8154809291906103a190610d6a565b9190505550600160035f3373ffffffffffffffffffffffffffffffffffffffff1673ffffffffffffffffffffffffffffffffffffffff1681526020019081526020015f205f6101000a81548160ff0219169083151502179055505f8081548092919061040c90610d6a565b9190505550803373ffffffffffffffffffffffffffffffffffffffff167ff668ead05c744b9178e571d2edb452e72baf6529c8d72160e64e59b50d865bd060405160405180910390a350565b6003602052805f5260405f205f915054906101000a900460ff1681565b5f5481565b5f600280549050905090565b60015f9054906101000a900460ff1681565b6001805f6101000a81548160ff021916908315150217905550565b60015f9054906101000a900460ff1615610502576040517f08c379a00000000000000000000000000000000000000000000000000000000081526004016104f990610e21565b60405180910390fd5b5f5b81518110156105a7576002604051806060016040528083815260200184848151811061053357610532610d10565b5b602002602001015181526020015f815250908060018154018082558091505060019003905f5260205f2090600302015f909190919091505f820151815f015560208201518160010190816105879190611039565b50604082015181600201555050808061059f90610d6a565b915050610504565b5050565b600281815481106105ba575f80fd5b905f5260205f2090600302015f91509050805f0154908060010180546105df90610e6c565b80601f016020809104026020016040519081016040528092919081815260200182805461060b90610e6c565b80156106565780601f1061062d57610100808354040283529160200191610656565b820191905f5260205f20905b81548152906001019060200180831161063957829003601f168201915b5050505050908060020154905083565b60018054906101000a900460ff1681565b5f60028054905082106106bf576040517f08c379a00000000000000000000000000000000000000000000000000000000081526004016106b690610cf2565b60405180910390fd5b600282815481106106d3576106d2610d10565b5b905f5260205f209060030201600201549050919050565b60018060016101000a81548160ff021916908315150217905550565b5f604051905090565b5f80fd5b5f80fd5b5f819050919050565b61072981610717565b8114610733575f80fd5b50565b5f8135905061074481610720565b92915050565b5f6020828403121561075f5761075e61070f565b5b5f61076c84828501610736565b91505092915050565b5f73ffffffffffffffffffffffffffffffffffffffff82169050919050565b5f61079e82610775565b9050919050565b6107ae81610794565b81146107b8575f80fd5b50565b5f813590506107c9816107a5565b92915050565b5f602082840312156107e4576107e361070f565b5b5f6107f1848285016107bb565b91505092915050565b5f8115159050919050565b61080e816107fa565b82525050565b5f6020820190506108275f830184610805565b92915050565b61083681610717565b82525050565b5f60208201905061084f5f83018461082d565b92915050565b5f80fd5b5f601f19601f8301169050919050565b7f4e487b71000000000000000000000000000000000000000000000000000000005f52604160045260245ffd5b61089f82610859565b810181811067ffffffffffffffff821117156108be576108bd610869565b5b80604052505050565b5f6108d0610706565b90506108dc8282610896565b919050565b5f67ffffffffffffffff8211156108fb576108fa610869565b5b602082029050602081019050919050565b5f80fd5b5f80fd5b5f67ffffffffffffffff82111561092e5761092d610869565b5b61093782610859565b9050602081019050919050565b828183375f83830152505050565b5f61096461095f84610914565b6108c7565b9050828152602081018484840111156109805761097f610910565b5b61098b848285610944565b509392505050565b5f82601f8301126109a7576109a6610855565b5b81356109b7848260208601610952565b91505092915050565b5f6109d26109cd846108e1565b6108c7565b905080838252602082019050602084028301858111156109f5576109f461090c565b5b835b81811015610a3c57803567ffffffffffffffff811115610a1a57610a19610855565b5b808601610a278982610993565b855260208501945050506020810190506109f7565b5050509392505050565b5f82601f830112610a5a57610a59610855565b5b8135610a6a8482602086016109c0565b91505092915050565b5f60208284031215610a8857610a8761070f565b5b5f82013567ffffffffffffffff811115610aa557610aa4610713565b5b610ab184828501610a46565b91505092915050565b5f81519050919050565b5f82825260208201905092915050565b5f5b83811015610af1578082015181840152602081019050610ad6565b5f8484015250505050565b5f610b0682610aba565b610b108185610ac4565b9350610b20818560208601610ad4565b610b2981610859565b840191505092915050565b5f606082019050610b475f83018661082d565b8181036020830152610b598185610afc565b9050610b68604083018461082d565b949350505050565b7f566f74696e6720686173206e6f742073746172746564207965740000000000005f82015250565b5f610ba4601a83610ac4565b9150610baf82610b70565b602082019050919050565b5f6020820190508181035f830152610bd181610b98565b9050919050565b7f566f74696e672069732073746f707065640000000000000000000000000000005f82015250565b5f610c0c601183610ac4565b9150610c1782610bd8565b602082019050919050565b5f6020820190508181035f830152610c3981610c00565b9050919050565b7f596f75206861766520616c726561647920766f746564000000000000000000005f82015250565b5f610c74601683610ac4565b9150610c7f82610c40565b602082019050919050565b5f6020820190508181035f830152610ca181610c68565b9050919050565b7f496e76616c69642063616e6469646174652049440000000000000000000000005f82015250565b5f610cdc601483610ac4565b9150610ce782610ca8565b602082019050919050565b5f6020820190508181035f830152610d0981610cd0565b9050919050565b7f4e487b71000000000000000000000000000000000000000000000000000000005f52603260045260245ffd5b7f4e487b71000000000000000000000000000000000000000000000000000000005f52601160045260245ffd5b5f610d7482610717565b91507fffffffffffffffffffffffffffffffffffffffffffffffffffffffffffffffff8203610da657610da5610d3d565b5b600182019050919050565b7f546865206164646974696f6e206f6620757365727320686173206265656e20685f8201527f616c7465642e0000000000000000000000000000000000000000000000000000602082015250565b5f610e0b602683610ac4565b9150610e1682610db1565b604082019050919050565b5f6020820190508181035f830152610e3881610dff565b9050919050565b7f4e487b71000000000000000000000000000000000000000000000000000000005f52602260045260245ffd5b5f6002820490506001821680610e8357607f821691505b602082108103610e9657610e95610e3f565b5b50919050565b5f819050815f5260205f209050919050565b5f6020601f8301049050919050565b5f82821b905092915050565b5f60088302610ef87fffffffffffffffffffffffffffffffffffffffffffffffffffffffffffffffff82610ebd565b610f028683610ebd565b95508019841693508086168417925050509392505050565b5f819050919050565b5f610f3d610f38610f3384610717565b610f1a565b610717565b9050919050565b5f819050919050565b610f5683610f23565b610f6a610f6282610f44565b848454610ec9565b825550505050565b5f90565b610f7e610f72565b610f89818484610f4d565b505050565b5b81811015610fac57610fa15f82610f76565b600181019050610f8f565b5050565b601f821115610ff157610fc281610e9c565b610fcb84610eae565b81016020851015610fda578190505b610fee610fe685610eae565b830182610f8e565b50505b505050565b5f82821c905092915050565b5f6110115f1984600802610ff6565b1980831691505092915050565b5f6110298383611002565b9150826002028217905092915050565b61104282610aba565b67ffffffffffffffff81111561105b5761105a610869565b5b6110658254610e6c565b611070828285610fb0565b5f60209050601f8311600181146110a1575f841561108f578287015190505b611099858261101e565b865550611100565b601f1984166110af86610e9c565b5f5b828110156110d6578489015182556001820191506020850194506020810190506110b1565b868310156110f357848901516110ef601f891682611002565b8355505b6001600288020188555050505b50505050505056fea26469706673582212205a928b4b74574a1d96efbdf5c235d11b9c8a57e57f1a06ac04498b56846ac4e564736f6c63430008150033",
  "immutableReferences": {},
  "source": "// SPDX-License-Identifier: MIT\npragma solidity ^0.8.0;\n\ncontract EVMContract {\n  // Struct to represent a candidate\n  struct Candidate {\n    uint id;\n    string name;\n    uint voteCount;\n  }\n\n  // number of votes cast\n  uint public totalVotes;\n\n  // start voting if votingStart is true\n  bool public votingStart;\n\n  // End voting if votingEnd is true\n  bool public votingEnd;\n\n  // Array of candidates\n  Candidate[] public candidates;\n\n  // Mapping to keep track of whether an address has voted\n  mapping(address => bool) public hasVoted;\n\n  // Event to log when a vote is cast\n  event Vote(address indexed voter, uint indexed candidateId);\n\n  // Modifier to check if the method has been called\n  modifier hasVotingStarted() {\n    require(!votingStart, \"The addition of users has been halted.\");\n    _;\n  }\n\n  // Modifier to check if the method has been called\n  modifier startVote() {\n    require(votingStart, \"Voting has not started yet\");\n    _;\n  }\n\n  // Modifier to check if the method has been called\n  modifier endVote() {\n    require(!votingEnd, \"Voting is stopped\");\n    _;\n  }\n\n  // Function to add a candidate\n  function addCandidate(string[] memory _candidateNames) public hasVotingStarted {\n    for (uint i = 0; i < _candidateNames.length; i++) {\n      candidates.push(Candidate(i, _candidateNames[i], 0));\n    }\n  }\n\n  // Stop voting\n  function stopVoting() public {\n   votingEnd = true;\n  }\n\n  // Start voting\n  function startVoting() public {\n    votingStart = true;\n  }\n\n  // Function to cast a vote for a candidate\n  function vote(uint _candidateId) public startVote endVote {\n    // Check if the sender has already voted\n    require(!hasVoted[msg.sender], \"You have already voted\");\n\n    // Check candidate is valid or not\n    require(_candidateId < candidates.length, \"Invalid candidate ID\");\n\n    // Increment the vote count\n    candidates[_candidateId].voteCount++;\n\n    // Mark the sender's address as voted\n    hasVoted[msg.sender] = true;\n\n\n    totalVotes++;\n    // Emit an event to log the vote\n    emit Vote(msg.sender, _candidateId);\n  }\n\n  // // Function to get the total number votes\n  // function getTotalVotes() public view returns (uint) {\n  //   uint total = 0;\n  //   for(uint i = 0; i < candidates.length; i++) {\n  //    total += candidates[i].voteCount;\n  //   }\n  //   return total;\n  // }\n\n  // Function to get the total votes for a candidate\n  function getTotalVotesofCandidate(uint _candidateId) public view returns (uint) {\n    require(_candidateId < candidates.length, \"Invalid candidate ID\");\n    return candidates[_candidateId].voteCount;\n  }\n\n  // Function to get the total number of candidates\n  function getTotalCandidates() public view returns (uint) {\n    return candidates.length;\n  }\n}\n",
  "sourcePath": "/Users/apple/Desktop/untitledFolder/blockchain/contracts/EVMContract.sol",
  "compiler": {
    "name": "solc",
    "version": "0.8.21+commit.d9974bed.Emscripten.clang"
  },
  "schemaVersion": "3.4.16",
  "updatedAt": "2024-05-02T18:08:04.501Z",
  "devdoc": {
    "kind": "dev",
    "methods": {},
    "version": 1
  },
  "userdoc": {
    "kind": "user",
    "methods": {},
    "version": 1
  }
}