{
  "contractName": "QueueContract",
  "abi": [
    {
      "inputs": [],
      "name": "SIZE",
      "outputs": [
        {
          "internalType": "uint32",
          "name": "",
          "type": "uint32"
        }
      ],
      "stateMutability": "view",
      "type": "function"
    },
    {
      "inputs": [
        {
          "internalType": "uint256",
          "name": "val",
          "type": "uint256"
        }
      ],
      "name": "push",
      "outputs": [],
      "stateMutability": "nonpayable",
      "type": "function"
    },
    {
      "inputs": [],
      "name": "pop",
      "outputs": [],
      "stateMutability": "nonpayable",
      "type": "function"
    },
    {
      "inputs": [],
      "name": "get",
      "outputs": [
        {
          "internalType": "uint256[]",
          "name": "",
          "type": "uint256[]"
        }
      ],
      "stateMutability": "view",
      "type": "function"
    },
    {
      "inputs": [
        {
          "internalType": "uint256",
          "name": "val",
          "type": "uint256"
        },
        {
          "internalType": "uint256",
          "name": "index",
          "type": "uint256"
        }
      ],
      "name": "update",
      "outputs": [],
      "stateMutability": "nonpayable",
      "type": "function"
    }
  ],
  "bytecode": "0x608060405234801561000f575f80fd5b5061080f8061001d5f395ff3fe608060405234801561000f575f80fd5b5060043610610055575f3560e01c80632fb565e8146100595780636d4ce63c14610075578063959ac48414610093578063a4ece52c146100af578063bdffd282146100b9575b5f80fd5b610073600480360381019061006e91906103bf565b6100d7565b005b61007d610141565b60405161008a91906104b4565b60405180910390f35b6100ad60048036038101906100a891906104d4565b610196565b005b6100b76102a2565b005b6100c1610383565b6040516100ce919061051d565b60405180910390f35b5f80549050811161011d576040517f08c379a000000000000000000000000000000000000000000000000000000000815260040161011490610590565b60405180910390fd5b815f8281548110610131576101306105ae565b5b905f5260205f2001819055505050565b60605f80548060200260200160405190810160405280929190818152602001828054801561018c57602002820191905f5260205f20905b815481526020019060010190808311610178575b5050505050905090565b600a63ffffffff165f80549050036101e3576040517f08c379a00000000000000000000000000000000000000000000000000000000081526004016101da90610625565b60405180910390fd5b5f808060018154018082558091505060019003905f5260205f20015f90919091909150555f60015f805490506102199190610670565b90505b5f81111561027e575f6001826102329190610670565b81548110610243576102426105ae565b5b905f5260205f2001545f828154811061025f5761025e6105ae565b5b905f5260205f2001819055508080610276906106a3565b91505061021c565b50805f8081548110610293576102926105ae565b5b905f5260205f20018190555050565b5f8080549050036102e8576040517f08c379a00000000000000000000000000000000000000000000000000000000081526004016102df90610714565b60405180910390fd5b5f5b60015f805490506102fb9190610670565b81101561035c575f6001826103109190610732565b81548110610321576103206105ae565b5b905f5260205f2001545f828154811061033d5761033c6105ae565b5b905f5260205f200181905550808061035490610765565b9150506102ea565b505f80548061036e5761036d6107ac565b5b600190038181905f5260205f20015f90559055565b600a81565b5f80fd5b5f819050919050565b61039e8161038c565b81146103a8575f80fd5b50565b5f813590506103b981610395565b92915050565b5f80604083850312156103d5576103d4610388565b5b5f6103e2858286016103ab565b92505060206103f3858286016103ab565b9150509250929050565b5f81519050919050565b5f82825260208201905092915050565b5f819050602082019050919050565b61042f8161038c565b82525050565b5f6104408383610426565b60208301905092915050565b5f602082019050919050565b5f610462826103fd565b61046c8185610407565b935061047783610417565b805f5b838110156104a757815161048e8882610435565b97506104998361044c565b92505060018101905061047a565b5085935050505092915050565b5f6020820190508181035f8301526104cc8184610458565b905092915050565b5f602082840312156104e9576104e8610388565b5b5f6104f6848285016103ab565b91505092915050565b5f63ffffffff82169050919050565b610517816104ff565b82525050565b5f6020820190506105305f83018461050e565b92915050565b5f82825260208201905092915050565b7f496e76616c696420496e646578000000000000000000000000000000000000005f82015250565b5f61057a600d83610536565b915061058582610546565b602082019050919050565b5f6020820190508181035f8301526105a78161056e565b9050919050565b7f4e487b71000000000000000000000000000000000000000000000000000000005f52603260045260245ffd5b7f4172726179206973206174206d6178696d756d206361706163697479000000005f82015250565b5f61060f601c83610536565b915061061a826105db565b602082019050919050565b5f6020820190508181035f83015261063c81610603565b9050919050565b7f4e487b71000000000000000000000000000000000000000000000000000000005f52601160045260245ffd5b5f61067a8261038c565b91506106858361038c565b925082820390508181111561069d5761069c610643565b5b92915050565b5f6106ad8261038c565b91505f82036106bf576106be610643565b5b600182039050919050565b7f417272617920697320656d7074790000000000000000000000000000000000005f82015250565b5f6106fe600e83610536565b9150610709826106ca565b602082019050919050565b5f6020820190508181035f83015261072b816106f2565b9050919050565b5f61073c8261038c565b91506107478361038c565b925082820190508082111561075f5761075e610643565b5b92915050565b5f61076f8261038c565b91507fffffffffffffffffffffffffffffffffffffffffffffffffffffffffffffffff82036107a1576107a0610643565b5b600182019050919050565b7f4e487b71000000000000000000000000000000000000000000000000000000005f52603160045260245ffdfea26469706673582212208388d97d4e955e41f1fec5fcddcc271103c9b9fbc843c51122f40d1b9826a0d764736f6c63430008150033",
  "immutableReferences": {},
  "source": "// SPDX-License-Identifier: MIT\npragma solidity >=0.6.12 <0.9.0;\n\ncontract QueueContract {\n  uint256[] queue; // array\n  uint32 constant public SIZE = 10; // size of array\n\n  // Push value at index 0\n  function push(uint val) public {\n    require(queue.length != SIZE, \"Array is at maximum capacity\");\n    queue.push(0);\n    for (uint256 i = queue.length - 1; i > 0; i--) {\n      queue[i] = queue[i-1];\n    }\n    queue[0] = val;\n  }\n\n  // Remove value\n  function pop() public {\n    require(queue.length != 0, \"Array is empty\");\n    for (uint256 i = 0; i < queue.length - 1; i++) {\n      queue[i] = queue[i + 1];\n    }\n    queue.pop();\n  }\n\n  // Get value of array\n  function get() public view returns (uint[] memory) {\n    return queue;\n  }\n\n  // Modify the value at a specific index.\n  function update(uint val, uint index) public {\n    require(index > queue.length, \"Invalid Index\");\n    queue[index] = val;\n  }\n}\n",
  "sourcePath": "/Users/apple/Desktop/untitledFolder/blockchain/contracts/QueueContract.sol",
  "compiler": {
    "name": "solc",
    "version": "0.8.21+commit.d9974bed.Emscripten.clang"
  },
  "schemaVersion": "3.4.16",
  "updatedAt": "2024-05-02T18:08:04.503Z",
  "devdoc": {
    "kind": "dev",
    "methods": {},
    "version": 1
  },
  "userdoc": {
    "kind": "user",
    "methods": {},
    "version": 1
  }
}